:020000040800F2
:100000000000022089220008D9220008D922000815
:10001000D9220008D9220008D922000800000000D7
:10002000000000000000000000000000D9220008CD
:10003000D922000800000000D9220008212200086F
:10004000D9220008D9220008D9220008D9220008A4
:10005000D9220008D9220008D9220008D922000894
:10006000D9220008D9220008D9220008D922000884
:10007000D9220008D9220008D9220008D922000874
:10008000D9220008D9220008D9220008D922000864
:10009000D9220008D9220008D9220008D922000854
:1000A000D9220008D9220008D9220008D922000844
:1000B000D9220008D9220008D9220008D922000834
:1000C000D9220008D9220008D9220008D922000824
:1000D000D9220008D9220008D9220008D922000814
:1000E000D9220008D9220008D9220008D922000804
:1000F000D9220008D9220008D9220008D9220008F4
:10010000D9220008D9220008D9220008D9220008E3
:10011000D9220008D9220008D92200082D2200087F
:10012000D9220008D9220008D9220008D9220008C3
:10013000D9220008D9220008D9220008D9220008B3
:10014000D9220008D9220008D9220008D9220008A3
:10015000D9220008D9220008D9220008D922000893
:10016000D9220008D9220008D9220008D922000883
:10017000D9220008D9220008D92200080000000076
:08018000D9220008D922000871
:1001900010B5054C237833B9044B13B10448AFF3C1
:1001A00000800123237010BD7000002000000000BB
:1001B000482B000808B5034B1BB103490348AFF3B4
:1001C000008008BD0000000074000020482B0008DB
:1001D00053B94AB9002908BF00281CBF4FF0FF31AE
:1001E0004FF0FF3000F072B9ADF1080C6DE904CEAC
:1001F00000F006F8DDF804E0DDE9022304B0704702
:100200002DE9F047089E04468846002B4BD18A42D0
:10021000154667D9B2FA82F24AB1C2F1200701FA53
:1002200002F320FA07F7954047EA030894404FEAA3
:10023000154E230CB8FBFEF71FFA85FC0EFB178842
:1002400043EA084307FB0CF1994209D9EB1807F17F
:10025000FF3080F01B81994240F21881023F2B440D
:100260005B1AA4B2B3FBFEF00EFB103344EA034466
:1002700000FB0CFCA44509D92C1900F1FF3380F0D8
:100280000781A44540F2048102382C4440EA07402B
:10029000A4EB0C0400271EB1D4400023C6E90043A0
:1002A0003946BDE8F0878B4209D9002E00F0EB807B
:1002B0000027C6E9000138463946BDE8F087B3FAA1
:1002C00083F7002F47D18B4202D3824200F2FA809B
:1002D000841A61EB030301209846002EE0D0C6E9A2
:1002E0000048DDE702B9FFDEB2FA82F2002A40F0F0
:1002F0008F80491B4FEA154E1FFA85F80127B1FB85
:10030000FEFC230C0EFB1C1143EA014308FB0CF11D
:10031000994207D9EB180CF1FF3002D2994200F252
:10032000CD808446591AA3B2B1FBFEF00EFB101427
:1003300043EA044408FB00F8A04507D92C1900F152
:10034000FF3302D2A04500F2B6801846A4EB0804A1
:1003500040EA0C409FE7C7F1200CBB4022FA0CFE9C
:100360004EEA030E01FA07F420FA0CF521FA0CF319
:100370004FEA1E482543B3FBF8F92C0C08FB193350
:100380001FFA8EFA44EA034309FB0AF49C4202FA7C
:1003900007F200FA07F10BD91EEB030309F1FF3056
:1003A00080F087809C4240F28480A9F10209734466
:1003B0001B1BADB2B3FBF8F008FB103345EA034456
:1003C00000FB0AFAA24508D91EEB040400F1FF3332
:1003D0006BD2A24569D90238744440EA0940A0FBB7
:1003E0000289A4EB0A044C45C2464B4654D351D073
:1003F000002E69D0B1EB0A0564EB030404FA0CFC8F
:10040000FD40FC404CEA0505C6E90054002747E7DB
:10041000C2F1200320FA03F7954001FA02F021FA15
:1004200003F34FEA154E3843010CB3FBFEF71FFAF6
:1004300085F80EFB173341EA034107FB08F38B42B3
:1004400004FA02F407D9691807F1FF3C2FD28B4256
:100450002DD9023F2944CB1A81B2B3FBFEF00EFB2B
:10046000103341EA034100FB08F38B4207D96918B6
:1004700000F1FF3C17D28B4215D902382944C91A22
:1004800040EA07473BE73746304609E70746E7E6D5
:100490001846FBE64145ABD2B8EB020A69EB0E0207
:1004A00001381346A4E76046E9E7184695E7674632
:1004B000D1E781467CE702382C4447E7ACF1020CD7
:1004C0002B442FE7384608E73746E9E6704700BF78
:1004D00001F0FF01102A2BDB10F0070F08D010F8F5
:1004E000013B013A8B422DD010F0070F42B3F6D1F9
:1004F000F0B441EA012141EA014122F007047FF012
:1005000000070023F0E80256083C85EA010586EA68
:10051000010685FA47F5A3FA87F586FA47F6A5FAA4
:1005200087F68EB9EED1F0BC01F0FF0102F00702B0
:1005300032B110F8013B013A83EA010313B1F8D15B
:100540000020704701387047002D06BF354603383C
:10055000073815F0010F07D1013015F4807F02BF75
:10056000013015F4C03F0130F0BC0138704700BFC6
:1005700010B504460E4B18784FF47A73B3FBF0F3C2
:100580000C4A1068B0FBF3F000F01CFB68B90F2CAC
:1005900001D901200AE0002221464FF0FF3000F08F
:1005A000D1FA034B5C60002000E0012010BD00BFC9
:1005B000000000200800002008B50B4B1A6842F428
:1005C00000721A601A6842F480621A601A6842F473
:1005D00080721A60032000F0A3FA0020FFF7C8FF22
:1005E00001F066FD002008BD003C0240034A11688E
:1005F000034B1B780B441360704700BF980000202A
:1006000000000020014B1868704700BF98000020D0
:1006100038B50446FFF7F6FF0546B4F1FF3F02D0B8
:10062000044B1B781C44FFF7EDFF401BA042FAD39C
:1006300038BD00BF00000020494B5A6822F4403208
:100640005A605A6841680A435A600268536823F442
:100650008073536002685368016943EA0123536061
:100660000268536823F040735360026853688168DE
:100670000B4353600268936823F40063936002683D
:100680009368C1680B439360826A364B9A4249D0A3
:100690000268936823F07063936002689368816ACC
:1006A0000B4393600268936823F0405393600268A1
:1006B0009368C16A0B4393600268936823F0020356
:1006C000936002689368816943EA41039360036A17
:1006D000002B32D10268536823F400635360026830
:1006E000D36A23F47003D3620168CB6AC269013A0A
:1006F00043EA0253CB620268936823F40073936069
:1007000002689368016B43EA41239360026893682F
:1007100023F48063936002689368416943EA81230C
:10072000936070470268936823F070639360026877
:10073000936823F040539360BEE70268536843F424
:10074000006353600268536823F460435360016898
:100750004B68426A013A43EA42334B60BFE700BF4D
:10076000002301400100000F30B310B50446036CB4
:1007700043B1236C13F0100F0AD00120002384F83A
:100780003C3010BD436480F83C3001F0DBFCF0E706
:10079000236C23F4885323F0020343F00203236401
:1007A0002046FFF749FF00206064236C23F0030319
:1007B00043F001032364E1E70120704730B583B0C3
:1007C0000023019390F83C30012B00F0818001233D
:1007D00080F83C300468A36813F0010F13D1A368BC
:1007E00043F00103A3603F4B1C683F4BA3FB043461
:1007F000A40C04EB4404019402E0019C013C01942C
:10080000019C002CF9D103689C6814F0010F61D0A1
:10081000046C24F4E06424F0010444F4807404645F
:100820005B6813F4806F05D0036C23F4405343F4EA
:1008300080530364036C13F4805F36D0436C23F061
:100840000603436413460446002280F83C20826B72
:100850002648D063A26B26481064A26B2548D0645A
:1008600022686FF0220010602568686840F08060A0
:1008700068602568A86840F48070A86020680A460F
:1008800000F14C01A06B00F0DEF91B4B5B6813F02C
:100890001F0F0DD123689A6812F0405F1DD19A682E
:1008A00042F080429A60002015E000234364C9E7CB
:1008B0002368124A934201D000200CE09A6812F09B
:1008C000405F0CD19A6842F080429A60002002E0BA
:1008D000022000E0002003B030BD0020FBE7002034
:1008E000F9E700BF0800002083DE1B430909000868
:1008F0006D0900087909000800230140002001402B
:100900000368D86C7047704708B5836B1A6C12F097
:10091000500F03D09B6BDB6C984708BD1A6C42F4F8
:1009200000721A641A68916811F0405F19D19969D0
:10093000B9B9D16A11F4700F03D0916811F4806FC6
:100940000FD1516821F0200151601A6C22F480729D
:100950001A641A6C12F4805F03D11A6C42F001021F
:100960001A641846FFF7CFFFD7E7704708B5806BCA
:10097000FFF7FBFF08BD704708B5806B4023036499
:10098000436C43F004034364FFF7F5FF08BD000028
:1009900030B482B00023019390F83C30012B00F07A
:1009A000B780012380F83C300B68092B3ED90568DD
:1009B000EA689BB203EB43031E3B072404FA03F3EC
:1009C00022EA0303EB600568EA688C680B8803EB96
:1009D00043031E3B04FA03F31343EB604B68062BFF
:1009E0003AD805686A6B03EB8303053B1F2404FABE
:1009F00003F322EA03036B6305686A6B4B6803EB3E
:100A00008303053B0C8804FA03F313436B6302680A
:100A1000404B9A4250D002683E4B9A4255D0002338
:100A200080F83C30184602B030BC704705682A692F
:100A30009BB203EB4303072404FA03F322EA030304
:100A40002B6105682A698C680B8803EB430304FA61
:100A500003F313432B61C1E70C2B16D805682A6BEF
:100A600003EB8303233B1F2404FA03F322EA03036B
:100A70002B6305682A6B4B6803EB8303233B0C88CD
:100A800004FA03F313432B63C1E70568EA6A03EB37
:100A90008303413B1F2404FA03F322EA0303EB62BE
:100AA0000568EA6A4B6803EB8303413B0C8804FA50
:100AB00003F31343EB62AAE70B68122BABD1164A80
:100AC000536843F480035360A5E70B68103B012B88
:100AD000A5D8114A536843F4000353600B68102BE8
:100AE0009DD10E4B1B6802F1467202F52E3202F2C6
:100AF0008332A2FB03239B0C03EB83035A00019276
:100B000002E0019B013B0193019B002BF9D186E799
:100B1000022088E700200140002301400800002057
:100B2000074AD36823F4E0631B041B0C000200F4A3
:100B3000E060184340F0BF6040F40030D060704780
:100B400000ED00E030B4174BDB68C3F30223C3F1C0
:100B50000704042C28BF04241D1D062D18D9033BAF
:100B60004FF0FF3505FA04F421EA0401994005FA33
:100B700003F322EA0303194300280BDB0901C9B27E
:100B800000F1604000F5614080F8001330BC704710
:100B90000023E5E700F00F000901C9B2024B195428
:100BA000F4E700BF00ED00E014ED00E000F01F02EC
:100BB000400901239340024A42F82030704700BFA9
:100BC00000E100E00138B0F1807F0AD2064B5860A6
:100BD000064AF02182F823100020986007221A604C
:100BE00070470120704700BF10E000E000ED00E01A
:100BF000042805D0054A136823F0040313607047E6
:100C0000024A136843F004031360704710E000E0E9
:100C1000704708B5FFF7FCFF08BD30B405682C68C5
:100C200024F480242C60046863608368402B05D022
:100C3000036899600368DA6030BC704703689A60A3
:100C40000368D960F8E738B5856D90F83440012C19
:100C500031D0012480F8344090F83540E4B2012CC2
:100C600004D0002380F83430022038BD044602202E
:100C700084F83500002060652046FFF7CEFFE26D66
:100C80003F239340AB602268136843F01603136060
:100C90002268536943F080035361236C23B12268B7
:100CA000136843F0080313602268136843F00103DC
:100CB00013600020D9E70220D7E7000000230F2BA4
:100CC00000F2D780F0B482B039E0072200E00022C1
:100CD000B2403A430234674E46F82420664A14680C
:100CE000EA4302EA04064F6817F4803F01D045EA60
:100CF0000406614C2660646802EA04064F6817F433
:100D0000003F01D045EA04065B4C6660A46802EA35
:100D100004064F6817F4801F01D045EA0406564CBC
:100D2000A660E46822404E6816F4001F01D045EA30
:100D30000402514CE26001330F2B00F29780012234
:100D40009A400C6804EA0205AA42F4D14C68022CCD
:100D500001D0122C10D1DE08083650F826C003F05E
:100D60000704A7000F24BC402CEA040C0C69BC400B
:100D700044EA0C0440F8264004685F000326BE40A5
:100D8000F64306EA040C4C6804F00304BC4044EA51
:100D90000C0404604C6804F1FF3CBCF1010F03D962
:100DA000112C01D0122C10D1846806EA040CCC68F6
:100DB000BC4044EA0C048460446824EA02024C68A3
:100DC000C4F300149C4014434460C26816408A680F
:100DD000BA403243C2604A6812F0805FABD0002252
:100DE0000192264A546C44F480445464526C02F4D8
:100DF00080420192019A9C08A61C1E4A52F8267055
:100E000003F0030296000F22B24027EA02071C4AB1
:100E100090423FF45CAF02F5806290421AD002F536
:100E20008062904218D002F58062904216D002F59E
:100E30008062904214D002F58062904212D002F596
:100E40008062904210D002F5806290423FF43DAF44
:100E500008223DE701223BE7022239E7032237E778
:100E6000042235E7052233E7062231E702B0F0BC61
:100E70007047704700380140003C01400038024094
:100E80000000024012B90904816170478161704716
:100E9000002800F0BB8170B582B00446036813F0EF
:100EA000010F3BD0A74B9B6803F00C03042B2CD005
:100EB000A44B9B6803F00C03082B21D06368B3F5A7
:100EC000803F4FD0B3F5A02F52D09E4B1A6822F42A
:100ED00080321A601A6822F480221A606368002B3C
:100EE00050D0FFF78FFB0546964B1B6813F4003F6D
:100EF00014D1FFF787FB401B6428F5D903208AE152
:100F0000904B5B6813F4800FD8D08E4B1B6813F4A2
:100F1000003F03D06368002B00F07A81236813F050
:100F2000020F55D0874B9B6813F00C0F3ED0854BBA
:100F30009B6803F00C03082B33D0E368002B68D0C8
:100F4000814B01221A60FFF75DFB05467D4B1B6854
:100F500013F0020F54D1FFF755FB401B0228F5D9BF
:100F6000032058E1774A136843F480331360B5E7F0
:100F7000744B1A6842F480221A601A6842F4803274
:100F80001A60ABE7FFF73EFB05466E4B1B6813F498
:100F9000003FC3D0FFF736FB401B6428F5D9032080
:100FA00039E1684B5B6813F4800FC6D1654B1B6851
:100FB00013F0020F04D0E368012B01D001202AE1D5
:100FC000604A136823F0F803216943EAC103136000
:100FD000236813F0080F40D0636963B35B4B0122B1
:100FE0001A60FFF70FFB0546564B5B6F13F0020FBD
:100FF00033D1FFF707FB401B0228F5D903200AE194
:10100000504A136823F0F803216943EAC1031360CF
:10101000DEE74D4B00221A60FFF7F4FA0546494B14
:101020001B6813F0020FD3D0FFF7ECFA401B022825
:10103000F5D90320EFE0454B00221A60FFF7E2FAF2
:101040000546404B5B6F13F0020F06D0FFF7DAFA4C
:10105000401B0228F5D90320DDE0236813F0040FBC
:1010600079D0384B1B6C13F0805F33D10023019390
:10107000344B1A6C42F080521A641B6C03F080539C
:101080000193019B0125324B1B6813F4807F23D011
:10109000A368012B34D0052B38D02A4B1A6F22F0CD
:1010A00001021A671A6F22F004021A67A368002B64
:1010B00036D0FFF7A7FA0646224B1B6F13F0020F3C
:1010C00048D1FFF79FFA801B41F288339842F3D949
:1010D0000320A0E00025D6E71D4A136843F480737F
:1010E0001360FFF78FFA0646194B1B6813F4807FD5
:1010F000CED1FFF787FA801B0228F5D903208AE0BA
:10110000104A136F43F001031367CFE70D4B1A6FBB
:1011100042F004021A671A6F42F001021A67C5E72B
:10112000FFF770FA0646074B1B6F13F0020F11D042
:10113000FFF768FA801B41F288339842F3D9032005
:1011400069E000BF0038024000004742800E47427D
:1011500000700040E5B9A369002B5BD0304A92686B
:1011600002F00C02082A58D0022B17D02D4B002277
:101170001A60FFF747FA0446294B1B6813F0007FFB
:1011800042D0FFF73FFA001B0228F5D9032042E0C6
:10119000234A136C23F080531364DCE7214B0022B5
:1011A0001A60FFF72FFA05461D4B1B6813F0007FEE
:1011B00006D0FFF727FA401B0228F5D903202AE0C2
:1011C000E369226A1343626A43EA8213A26A5208FD
:1011D000013A43EA0243E26A43EA0263104A536077
:1011E000104B01221A60FFF70DFA04460C4B1B68E6
:1011F00013F0007F06D1FFF705FA001B0228F5D98E
:10120000032008E0002006E0002004E001207047F1
:10121000012000E0002002B070BD0120FBE700BF0C
:101220000038024060004742324B9B6803F00C03D9
:10123000042B5CD0082B01D02F4870472DE9F04BD0
:101240002C4B5A6802F03F025B6813F4800F2BD0DE
:10125000284B5B68C3F388131E4600275C010025FA
:10126000E41A65EB0705A90141EA9461A001001B9E
:1012700061EB0501CB0043EA5073C400A01943EBB6
:1012800007014B0243EAD05344022046194600238B
:10129000FEF79EFF174B5B68C3F3014301335B000E
:1012A000B0FBF3F0BDE8F08B124B5B68C3F388131F
:1012B0001E4600275C010025E41A65EB0705A9011D
:1012C00041EA9461A001001B61EB0501CB0043EAF8
:1012D0005073C400A01943EB07018B0243EA9053FB
:1012E0008402204619460023FEF772FFD2E7034826
:1012F000704700BF003802400024F40000127A005A
:10130000002800F09D8070B504464F4B1B6803F029
:101310000F038B4209D2CBB24B4A1370136803F010
:101320000F038B4201D0012070BD236813F0020F20
:1013300017D013F0040F04D0444A936843F4E053E9
:101340009360236813F0080F04D0404A936843F475
:10135000604393603D4A936823F0F003A068034321
:1013600093600D46236813F0010F32D06368012BA0
:1013700021D09A1E012A25D9344A126812F0020F90
:1013800060D032498A6822F0030213438B60FFF772
:1013900039F906462D4B9B6803F00C036268B3EBEA
:1013A000820F16D0FFF72EF9801B41F28833984246
:1013B000F0D90320B8E7254A126812F4003FE0D1C3
:1013C0000120B1E7214A126812F0007FD9D1012033
:1013D000AAE71D4B1B6803F00F03AB4209D9EAB221
:1013E000194B1A701B6803F00F03AB4201D00120A8
:1013F0009AE7236813F0040F06D0144A936823F485
:10140000E053E1680B439360236813F0080F07D0A3
:101410000E4A936823F46043216943EAC103936051
:10142000FFF702FF094B9B68C3F30313084AD35C21
:10143000D840084B18600020FFF79AF8002073E7A7
:101440000120704701206FE7003C02400038024055
:10145000602B000808000020014B1868704700BF8F
:101460000800002008B5FFF7F7FF044B9B68C3F3A3
:101470008223034AD35CD84008BD00BF0038024035
:10148000702B000808B5FFF7E7FF044B9B68C3F318
:101490004233034AD35CD84008BD00BF0038024045
:1014A000702B00087047704770477047704710B541
:1014B000044603681A6912F0020F11D0DA6812F0BC
:1014C000020F0DD06FF002021A6101230376036848
:1014D0009B6913F0030F70D0FFF7E6FF002323761C
:1014E00023681A6912F0040F12D0DA6812F0040FA0
:1014F0000ED06FF004021A610223237623689B69E1
:1015000013F4407F5FD02046FFF7CEFF0023237601
:1015100023681A6912F0080F12D0DA6812F0080F67
:101520000ED06FF008021A61042323762368DB696A
:1015300013F0030F4ED02046FFF7B6FF00232376AB
:1015400023681A6912F0100F12D0DA6812F0100F27
:101550000ED06FF010021A61082323762368DB692E
:1015600013F4407F3DD02046FFF79EFF00232376F3
:1015700023681A6912F0010F03D0DA6812F0010F24
:1015800036D123681A6912F0800F03D0DA6812F09E
:10159000800F34D123681A6912F0400F03D0DA6843
:1015A00012F0400F32D123681A6912F0200F03D0D5
:1015B000DA6812F0200F30D110BDFFF774FF20461B
:1015C000FFF773FF8AE72046FFF76DFF2046FFF71E
:1015D0006CFF9BE72046FFF766FF2046FFF765FF9D
:1015E000ACE72046FFF75FFF2046FFF75EFFBDE751
:1015F0006FF001021A612046FFF754FFC1E76FF058
:1016000080021A61204600F0B2F8C3E76FF0400292
:101610001A612046FFF74AFFC5E76FF020021A6102
:10162000204600F0A3F8C7E703682E4A904212D084
:10163000B0F1804F0FD0A2F57C4290420BD002F562
:101640008062904207D002F58062904203D002F59A
:101650007842904203D123F070034A681343214A31
:1016600090422AD0B0F1804F27D0A2F57C42904220
:1016700023D002F5806290421FD002F58062904232
:101680001BD002F57842904217D002F5705290427A
:1016900013D002F5806290420FD002F58062904232
:1016A0000BD0A2F59832904207D002F580629042AA
:1016B00003D002F58062904203D123F44073CA68DC
:1016C000134303608B68C3620B688362054B9842C7
:1016D00003D003F58063984201D10B6903630123B2
:1016E0004361704700000140A8B110B5044690F86E
:1016F00039305BB1022384F83930211D2068FFF7AF
:1017000093FF012384F83930002010BD80F8383071
:1017100000F03CFDEEE70120704790F83830012BD7
:1017200022D030B4012280F83820022380F83930EA
:101730000468636823F070036360046863680D687D
:101740002B4363600468A36823F08003A3600468EC
:10175000A36849680B43A36080F83920002380F810
:101760003830184630BC70470220704770477047C9
:101770002DE9F843044601680A6922F44052C3681F
:1017800013430B610168CA6822F4164222F00C026E
:1017900083680069034360690343E06903431343BB
:1017A000CB6021684A6922F44072A36913434B61FC
:1017B000E369B3F5004F60D02368B84A934200F064
:1017C000148102F58062934200F00F81FFF74AFE18
:1017D00000EB800000EB80006568AD00B0FBF5F524
:1017E000AF4FA7FB05356D092E01FFF73BFE00EB60
:1017F000800000EB80006568AD00B0FBF5F9FFF7F5
:1018000031FE00EB800000EB80006568AD00B0FBAE
:10181000F5F5A7FB05356D094FF0640808FB159534
:101820002D013235A7FB05356D0905F0F00535446E
:10183000FFF718FE00EB800000EB80006668B60042
:10184000B0FBF6F6FFF70EFE00EB800000EB800029
:1018500063689B00B0FBF3F0A7FB0030400908FB76
:1018600010684FEA081808F13208A7FB0837C7F3D9
:10187000431723682F449F600DE12368874A9342F2
:101880005BD002F58062934257D0FFF7EBFD00EB8F
:10189000800000EB800065686D00B0FBF5F5804FBF
:1018A000A7FB05356D092E01FFF7DCFD00EB80007D
:1018B00000EB800065686D00B0FBF5F9FFF7D2FD25
:1018C00000EB800000EB800065686D00B0FBF5F573
:1018D000A7FB05356D094FF0640808FB1595ED0071
:1018E0003235A7FB05356D096D0005F4F8753544F3
:1018F000FFF7B8FD00EB800000EB80006668760023
:10190000B0FBF6F6FFF7AEFD00EB800000EB8000C9
:1019100063685B00B0FBF3F3A7FB03235B0908FBE1
:1019200013684FEAC80808F13208A7FB0837C7F365
:10193000421723682F449F60ADE0FFF7A3FD00EB43
:10194000800000EB800065686D00B0FBF5F5544F3A
:10195000A7FB05356D092E01FFF794FD00EB800014
:1019600000EB800065686D00B0FBF5F9FFF78AFDBC
:1019700000EB800000EB800065686D00B0FBF5F5C2
:10198000A7FB05356D094FF0640808FB1595ED00C0
:101990003235A7FB05356D096D0005F4F875354442
:1019A000FFF770FD00EB800000EB800066687600BA
:1019B000B0FBF6F6FFF766FD00EB800000EB800061
:1019C00063685B00B0FBF3F3A7FB03235B0908FB31
:1019D00013684FEAC80808F13208A7FB0837C7F3B5
:1019E000421723682F449F6055E0FFF74BFD00EB43
:1019F000800000EB80006568AD00B0FBF5F5284F76
:101A0000A7FB05356D092E01FFF73CFD00EB8000BB
:101A100000EB80006568AD00B0FBF5F9FFF732FD23
:101A200000EB800000EB80006568AD00B0FBF5F5D1
:101A3000A7FB05356D094FF0640808FB15952D01CE
:101A40003235A7FB05356D0905F0F0053544FFF784
:101A500019FD00EB800000EB80006668B600B0FB6B
:101A6000F6F6FFF70FFD00EB800000EB80006368E7
:101A70009B00B0FBF3F0A7FB0030400908FB1068A7
:101A80004FEA081808F13208A7FB0837C7F34317D5
:101A900023682F449F60BDE8F88300BF0010014019
:101AA0001F85EB512DE9F04105460F461646984635
:101AB000069C2B681B6837EA03030CBF0123002335
:101AC000B3421DD1B4F1FF3FF3D02CB1FEF79AFD24
:101AD000A0EB0800A042ECD92A68D36823F4D073A5
:101AE000D3602A68536923F001035361202385F8EA
:101AF000393085F83A30002385F83830032000E08B
:101B00000020BDE8F08158B310B5044690F8393094
:101B10000BB3242384F839302268D36823F40053AC
:101B2000D3602046FFF724FE2268136923F4904314
:101B300013612268536923F02A0353612268D36832
:101B400043F40053D3600020E063202384F839304D
:101B500084F83A3010BD80F8383000F037FBD8E711
:101B6000012070472DE9F04182B01E4690F83930CF
:101B7000DBB2202B55D104460D469046002955D0A6
:101B8000002A55D090F83830012B53D0012380F82B
:101B900038300023C363212380F83930FEF732FD4B
:101BA0000746A4F82480A4F8268010E000963B465F
:101BB000002280212046FFF775FF00283CD12B88AA
:101BC0002268C3F3080353602369C3B90235E38C69
:101BD0009BB2B3B1E38C013B9BB2E384A368B3F542
:101BE000805FE3D000963B46002280212046FFF72D
:101BF00059FF18BB2A7823685A600135E7E7013599
:101C0000E5E700963B46002240212046FFF74AFFC9
:101C10000346A8B9202284F83920002284F838200D
:101C200000E00223184602B0BDE8F0810123F9E785
:101C30000123F7E70223F5E70323F3E70323F1E7A3
:101C40000323EFE72DE9F04F8DB0002401947B4B87
:101C50001A6B42F010021A631A6B02F01002019222
:101C6000019A02941A6B42F004021A631A6B02F092
:101C700004020292029A03941A6B42F080021A63E1
:101C80001A6B02F080020392039A04941A6B42F0DA
:101C900001021A631A6B02F001020492049A05947D
:101CA0001A6B42F002021A631A6B02F002020592EA
:101CB000059A06941A6B42F008021A631B6B03F034
:101CC00008030693069B224608215D48FFF7DAF8D1
:101CD000DFF8808122464FF400514046FFF7D2F8EA
:101CE000012211464046FFF7CDF822464FF210017F
:101CF0005448FFF7C7F80825079501260896099468
:101D00000A9407A94E48FEF7D9FF42F20103079350
:101D1000089609940A9407A94046FEF7CFFF079555
:101D20000225089509940A944FF00509CDF82C90E6
:101D300007A94046FEF7C2FF079608940994424F50
:101D400007A93846FEF7BAFF1023079308950994B0
:101D50000A944FF0060BCDF82CB007A93846FEF7D1
:101D6000ADFFE0230793089509940A94CDF82C90D1
:101D700007A93846FEF7A2FF4FF0040ACDF81CA0D1
:101D80000894099407A93148FEF798FF4FF480633F
:101D90000793089509940A94CDF82C9007A92B482D
:101DA000FEF78CFF4FF210030793089609940A94EC
:101DB00007A92448FEF782FF4FF4A4530793089520
:101DC00009940A94CDF82CB007A94046FEF776FF97
:101DD0004FF4007307930894099407A93846FEF757
:101DE0006DFF4FF4E0530793089509940A940A2372
:101DF0000B9307A93846FEF761FF20230793089449
:101E0000099407A90F48FEF759FF4FF41073079381
:101E10001223089309960A94CDF82CA007A90B4821
:101E2000FEF74CFF07950A4B0893099407A904484D
:101E3000FEF744FF0DB0BDE8F08F00BF0038024050
:101E400000100240000C024000000240000402406A
:101E50000000121000080240FEE7000008B50B4821
:101E60000B4B03604FF4E133436000238360C36096
:101E700003610C2242618361C361FFF744FE00B934
:101E800008BD40F21F110348FFF7E6FFE8000020FD
:101E900000440040782B000800B583B01048114B77
:101EA0000360092343600023836040F2E733C3608B
:101EB000FFF71AFC50B900230093019369460848C4
:101EC000FFF72BFC38B903B05DF804FB40F20511B5
:101ED0000548FFF7C1FF4FF486710348FFF7BCFFC9
:101EE0002801002000140040782B000800B585B0C0
:101EF0001448154B036000234360836003618361D2
:101F00000362C362114A8262C3600122C261036339
:101F10004261FEF729FC60B901230093019300237D
:101F2000029369460748FEF733FD30B905B05DF806
:101F300004FBEA210648FFF78FFFF4210448FFF76E
:101F40008BFF00BFA0000020002001400100000F17
:101F5000782B000800B595B000230193294A116C35
:101F600041F080511164126C02F080520192019A8A
:101F70000293254A116841F480411160126802F40D
:101F800080420292029A0222089201210B911021B2
:101F90000C910E920F930823109332231193042374
:101FA00012930723139308A8FEF772FF08BB0F23B1
:101FB000039302230493002105914FF4A053069349
:101FC000079303A8FFF79CF9B8B9FFF745FA0F4B41
:101FD000A3FB00308009FEF7F5FD0420FEF708FEA4
:101FE000002211464FF0FF30FEF7ACFD15B05DF852
:101FF00004FBB7210648FFF72FFFC5210448FFF770
:102000002BFF00BF0038024000700040D34D62102B
:10201000782B00082DE9F04184B0FEF7CDFAFFF7E8
:1020200099FFFFF70FFEFFF719FFFFF735FFFFF7E7
:102030005DFF002637460FE0074636B1301A4F28BD
:1020400003DD08F101080026374601340A20FEF7B7
:10205000DFFAB4F57A7F0FD0114D012211492846DD
:10206000FEF7ACFB2846FEF74BFC80B2B842E3DC3F
:10207000B742E2DD3E46E0E708EB48084FEA480297
:102080000949684600F04EF94FF47A730D2269460B
:102090000648FFF767FD4FF000084446DCE700BF45
:1020A000A00000209C000020882B0008E8000020F1
:1020B00010B582B000240094214B5A6C42F4804247
:1020C0005A645A6C02F480420092009A01941A6C8D
:1020D00042F080521A641B6C03F080530193019B01
:1020E0000720FEF71DFD224621466FF00B00FEF78C
:1020F00029FD224621466FF00A00FEF723FD224605
:1021000021466FF00900FEF71DFD224621466FF0C3
:102110000400FEF717FD224621466FF00300FEF78C
:1021200011FD224621466FF00100FEF70BFD22460D
:1021300021464FF0FF30FEF705FD02B010BD00BF95
:102140000038024002680F4B9A4200D0704700B539
:1021500087B00021009103F58C335A6C42F48072F1
:102160005A645B6C03F480730093009B0223019319
:1021700003230293039101A90348FEF79FFD07B0D3
:102180005DF804FB002001400000024002680E4B95
:102190009A4200D0704700B583B00021019103F549
:1021A00009331A6C42F020021A641B6C03F02003FE
:1021B0000193019B0A463720FEF7C4FC3720FEF747
:1021C000F5FC03B05DF804FB001400400268114BFD
:1021D0009A4200D0704700B587B0002300930E4BA1
:1021E0001A6C42F400321A641B6C03F4003300933F
:1021F000009B0C23019302230293012303930323E7
:1022000004930723059301A90448FEF757FD07B07F
:102210005DF804FB0044004000380240000002402A
:1022200008B5FEF7E3F9FEF7F4FC08BD08B502486F
:10223000FFF73DF908BD00BF280100200F49D1F884
:10224000883043F47003C1F888300D4B1A6842F0AF
:1022500001021A60002098601A6822F0847222F449
:1022600080321A60074A5A601A6822F480221A6083
:10227000D8604FF000638B60704700BF00ED00E056
:102280000038024010300024DFF834D0002103E091
:102290000C4B5B58435004310B480C4B42189A428C
:1022A000F6D30B4A02E0002342F8043B094B9A4262
:1022B000F9D3FFF7C3FF00F011F8FFF7ABFE70474B
:1022C00000000220D02B0008000000207000002039
:1022D0007000002068010020FEE7000070B50D4E80
:1022E0000D4CA41BA4100025A54209D10B4E0C4C8B
:1022F00000F02AFCA41BA4100025A54205D170BD46
:1023000056F8253098470135EEE756F825309847BE
:102310000135F2E7C82B0008C82B0008C82B0008BD
:10232000CC2B00080EB400B59CB01DAB02900690FB
:102330006FF00041094807910491094953F8042BB3
:1023400005910068019302A900F066F8029B002243
:102350001A701CB05DF804EB03B070470C0000204D
:102360000802FFFF2DE9F0478E689E4282460C4628
:102370009046994637D88A8912F4906F31D02568F3
:1023800009696F1A6569022305EB450595FBF3F5AD
:1023900009F101033B449D4238BF1D46530530D52A
:1023A000294600F029FB064650B90C23CAF8003034
:1023B000A38943F04003A3814FF0FF30BDE8F087CD
:1023C0003A46216900F0A6FAA38923F4906343F00A
:1023D0008003A381266165613E44ED1B2660A560F4
:1023E0004E464E4500D94E4632464146206800F0E2
:1023F0009CFAA3689B1BA36023681E4426600020F0
:10240000DCE72A4600F052FB06460028E2D12169AB
:10241000504600F0A3FAC8E72DE9F04F9DB0804682
:1024200003938B891D060C4616460FD50B696BB9B5
:10243000402100F0E1FA2060206128B90C23C8F89F
:1024400000304FF0FF30C7E0402363610023099361
:1024500020238DF8293030238DF82A304FF0010BDE
:1024600037463D4615F8013B0BB1252B3ED1B7EB66
:10247000060A0BD05346324621464046FFF772FF0C
:10248000013000F0A480099B534409933B78002B52
:1024900000F09D8000234FF0FF32CDE90523049327
:1024A00007938DF853301A932F46052217F8011B16
:1024B0004F48FEF70DF8049BD0B9D90644BF20223F
:1024C0008DF853201A0744BF2B228DF853202A7809
:1024D0002A2A15D0079A2F4600200A25394611F8D6
:1024E000013B303B092B4DD9B8B10FE02F46B8E77F
:1024F0003F4A801A0BFA00F0184304903D46D3E798
:10250000039A111D12680391002A01DB079204E06F
:10251000524243F00203079204933B782E2B0CD1D6
:102520007B782A2B33D1039B1A1D1B680392002B47
:10253000B8BF4FF0FF33023705932E4D3978032291
:102540002846FDF7C5FF38B14023401B03FA00F0D1
:10255000049B034301370493397827488DF82810EA
:1025600006227E1CFDF7B4FF002838D0234B13BB96
:10257000039B073323F0070308330393099B4B4462
:1025800009936DE705FB023201200F46A6E7002301
:102590000137059319460A25384610F8012B303AC1
:1025A000092A03D9002BC8D00591C6E705FB0121F4
:1025B00001230746F0E703AB00932246104B04A922
:1025C0004046AFF30080B0F1FF3F8146D6D1A389EA
:1025D0005B063FF536AF09981DB0BDE8F08F03AB41
:1025E00000932246064B04A9404600F081F8EAE732
:1025F0008C2B0008922B0008962B0008000000008E
:10260000652300082DE9F04791461F468A680B694B
:10261000DDF820809342B8BF1346C9F8003091F826
:10262000432006460C4612B10133C9F80030236836
:10263000990642BFD9F800300233C9F80030256846
:1026400015F0060507D104F1190AE368D9F800204E
:102650009B1AAB4228DC94F843302268003318BF41
:10266000012392062DD404F1430239463046C04777
:10267000013020D02368E568D9F8002003F0060374
:10268000042B08BFAD1AA36822690CBF25EAE575C3
:1026900000259342C4BF9B1AED184FF000091A346D
:1026A0004D451AD1002008E00123524639463046F4
:1026B000C047013003D14FF0FF30BDE8F08701354E
:1026C000C3E7E1185A1C302081F84300224494F8F3
:1026D000451082F843100233C5E7012322463946EC
:1026E0003046C0470130E6D009F10109D8E70000C3
:1026F0002DE9F04301F1430C0C46097E85B06E29AB
:102700001746064698460C9A00F0B38022D86329F3
:1027100036D00AD8002900F0B980582900F083800B
:1027200004F1420584F8421032E0642901D069299D
:10273000F6D120681368050603F104012AD51B6849
:102740001160002B03DA2D225B4284F843206F488E
:102750000A2239E0732900F09D8008D86F2920D023
:102760007029DDD1236843F02003236003E075293D
:1027700017D07829D4D1782384F84530644855E0BF
:102780001368191D1B68116004F1420584F842307A
:1027900001238CE01B68116010F0400F18BF1BB2C2
:1027A000CFE713682568181D1060280601D51B683F
:1027B00002E06806FBD51B8854486F2914BF0A2223
:1027C0000822002184F843106568A560002DC0F23E
:1027D0009580216821F004012160002B3DD1002D5E
:1027E00040F08E806546082A0BD12368DB0708D5A8
:1027F000236962689A42DEBF302305F8013C05F187
:10280000FF35ACEB05032361CDF800803B4603AAFE
:1028100021463046FFF7F6FE01304DD14FF0FF3034
:1028200005B0BDE8F083394884F845101368216885
:102830001D1D1B6815600A060BD5CA0744BF41F071
:10284000200121601BB9226822F0200222601022A0
:10285000B7E74D0648BF9BB2EFE76546B3FBF2F121
:1028600002FB1133C35C05F8013D0B460029F5D18D
:10287000B9E7136825686169181D106028061B6890
:1028800001D5196002E06A06FBD519800023236197
:102890006546B9E71368191D11601D68626800215B
:1028A0002846FDF715FE08B1401B60606368236190
:1028B000002384F84330A7E723692A463946304687
:1028C000C0470130AAD023689B0713D4E068039B5C
:1028D0009842B8BF1846A3E701234A463946304616
:1028E000C04701309AD00135E368039A9B1AAB4286
:1028F000F2DCEBE7002504F11909F5E7002BACD178
:10290000037884F8423004F142056CE79D2B0008FF
:10291000AE2B000810B5431E0A44914200D110BDF1
:1029200011F8014B03F8014FF7E7884210B501EBAE
:10293000020307D8421E99420AD011F8014B02F84F
:10294000014FF8E78342F5D98118D21AD34200D15A
:1029500010BD13F8014D01F8014DF7E738B50546F4
:10296000002945D051F8043C0C1F002BB8BFE418D7
:1029700000F0D2F81F4A1368104633B96360146040
:102980002846BDE8384000F0C8B8A3420CD92168F9
:102990006218934204BF1A685B68636004BF5218F0
:1029A00022600460ECE713465A680AB1A242FAD9E1
:1029B00019685818A0420BD1206801445818824267
:1029C0001960DDD1106852685A6001441960D7E778
:1029D00002D90C232B60D3E7206821188A4204BF58
:1029E00011685268626004BF091821605C60C7E723
:1029F00038BD00BF8C00002070B5CD1C25F003054C
:102A000008350C2D38BF0C25002D064601DBA942E8
:102A100003D90C233360002070BD00F07DF8214AFB
:102A20001468214691B9204C23681BB9304600F048
:102A300063F820602946304600F05EF8431C24D13C
:102A40000C233360304600F068F8E4E70B685B1B4A
:102A500018D40B2B0FD90B60CD50CC18304600F09A
:102A60005CF804F10B00231D20F00700C31AD3D03B
:102A70005A42E250D0E78C424B6816BF6360136045
:102A80000C46EBE70C464968CCE7C41C24F0030471
:102A9000A04205D0211A304600F02EF80130CFD0E8
:102AA0002560DBE78C00002090000020F8B5074689
:102AB00014460E4621B91146BDE8F840FFF79CBF09
:102AC00022B9FFF74BFF25462846F8BD00F026F84F
:102AD000A0420FD221463846FFF78EFF0546002858
:102AE000F2D031462246FFF715FF31463846FFF750
:102AF00035FFE9E73546E7E738B5064C00230546DC
:102B00000846236000F012F8431C02D1236803B189
:102B10002B6038BD640100207047704751F8043CB9
:102B2000181F002BBCBF0B58C0187047044A05493A
:102B30001368002B08BF0B461844106018467047F6
:102B40009400002068010020F8B500BFF8BC08BC64
:102B50009E467047F8B500BFF8BC08BC9E4670475B
:102B6000000000000000000001020304060708093D
:102B700000000000010203042E2E2F5372632F6DFC
:102B800061696E2E6300000025640000232D302B48
:102B90002000686C4C00656667454647003031325E
:102BA00033343536373839414243444546003031B5
:102BB0003233343536373839616263646566000014
:082BC00040D6FF7F0100000078
:042BC800B50100084B
:042BCC00910100086B
:102BD00001000000100000000024F400100000209C
:102BE00000000000000000000000000000000000E5
:102BF00000000000000000000000000000000000D5
:102C000000000000000000000000000000000000C4
:102C100000000000000000000000000000000000B4
:102C200000000000000000000000000000000000A4
:102C30000000000000000000000000000000000094
:040000050800228944
:00000001FF
